:100000000C9434000C9460000C9460000C9460001C
:100010000C9460000C9460000C9460000C946000E0
:100020000C9460000C9460000C9460000C946000D0
:100030000C9460000C9460000C9460000C946000C0
:100040000C9460000C9460000C94BA000C94600056
:100050000C9460000C9460000C9460000C946000A0
:100060000C9460000C94600011241FBECFEFD8E008
:10007000DEBFCDBF84B78093340114BE0FB6F894B1
:10008000A895809160008861809360001092600064
:100090000FBE11E0A0E0B1E0E2E9F3E002C005909C
:1000A0000D92A231B107D9F721E0A2E1B1E001C080
:1000B0001D92A433B207E1F70E944B010C94C701D3
:1000C0000C940000FC01808180FF1AC05B9A808143
:1000D00081FF18C05C9A808182FF16C05D9A808182
:1000E00083FF14C05E9A808184FF12C05F9A808172
:1000F00085FF10C0289A8181803071F0299A089577
:100100005B98E5CF5C98E7CF5D98E9CF5E98EBCF41
:100110005F98EDCF2898EFCF299808950F931F93FC
:10012000CF93DF93CDB7DEB764970FB6F894DEBFF9
:100130000FBECDBF8E010F5F1F4FB8010E9414018B
:10014000F8019E2F901B981758F064960FB6F894FC
:10015000DEBF0FBECDBFDF91CF911F910F910895EC
:1001600091912091C00025FF03C09093C600E9CF74
:10017000A895F7CF2F932FB72F933F938F939F93EC
:10018000EF93FF939091C0002091C60080911301DE
:100190009C7171F401968F7130911201381741F002
:1001A000E0911301F0E0EC5EFE4F20838093130199
:1001B000FF91EF919F918F913F912F912FBF2F91A1
:1001C0001895FC01108211820895FC01862F81543C
:1001D000863060F46154770B21E001C0220F6A95EC
:1001E000EAF78081822B808381E00895862F8156F3
:1001F000863058F46156770B81E001C0880F6A950C
:10020000EAF7809590818923EECF643519F481E077
:100210008183EACF643711F41182E6CF81E06F3336
:1002200009F080E0880F0895CF93DF93EC01898176
:10023000A9E0B1E0811102C0A0E0B1E082E5FB01DC
:1002400080838AE38183329620E030E0488150E069
:10025000022E02C0559547950A94E2F7922F40FF6F
:1002600012C09F5B91932F5F3F4F2630310571F78E
:10027000FD0198E09A1B892F8E0F2081211105C066
:10028000DF91CF9108959F59EDCF3196DB01A80FF3
:10029000B11D2C93F0CF00D0CDB7DEB780E890E051
:1002A0000FB6F89480936100909361000FBE88B1FF
:1002B0008F6388B95A9A8E010F5F1F4FC8010E9441
:1002C000E1005B98539A5C98549A5D98559A5E98B1
:1002D000569A5F98579A2898209A2998219A2A988E
:1002E000229AC8010E9462001092C50087E680939E
:1002F000C4008091C0008D7F8093C00086E0809311
:10030000C20088E98093C10088E19EE00FB6F894AE
:10031000A895809360000FBE9093600078942A9A0D
:10032000C8010E948E00F12CA89590911201809135
:100330001301981309C0F11023C08FE99FE00197C2
:10034000F1F700C00000F0CFE0911201F0E0EC5EA8
:10035000FE4F60818091120101968F71809312018E
:10036000C8010E94E500813000F319F4C8010E9421
:100370006200C8010E948E002A988CE3F82ED5CF27
:100380008F2D8150F82E8111D8CF2A9AD6CFF8948C
:02039000FFCF9D
:10039200204D3A6A6F670D0A00204D3A7468630D6A
:0203A2000A004F
:00000001FF
